:100000000C9436000C945E000C945E000C945E0020
:100010000C945E000C945E000C945E000C945E00E8
:100020000C945E000C945E000C945E000C945E00D8
:100030000C945E000C945E000C945E000C945E00C8
:100040000C94C6030C945E000C948E010C945E001C
:100050000C945E000C945E000C945E000C945E00A8
:100060000C945E000C945E005801470211241FBEE0
:10007000CFEFD4E0DEBFCDBF11E0A0E0B1E0ECEB0C
:10008000F9E002C005900D92A435B107D9F712E04E
:10009000A4E5B1E001C01D92A131B107E1F710E084
:1000A000CCE6D0E004C02297FE010E94D804C836F6
:1000B000D107C9F70E9487010C94DC040C9400005E
:1000C00008952F923F924F925F926F927F928F92FC
:1000D0009F92AF92BF92CF92DF92EF92FF920F93D7
:1000E0001F93CF93DF931C016B014A012901E801A3
:1000F00006EF11E0C8014AE250E060E070E020E065
:1001000030E00E94A603F10162817381C8010E9460
:100110009E03C8014CE250E060E070E020E030E077
:100120000E94A603F10164817581C8010E949E03AB
:10013000C8014CE250E060E070E020E030E00E9456
:10014000A603EE24D7FCE094FE2CC801B701A6015B
:100150002AE030E00E94A603C8014CE250E060E0D3
:1001600070E020E030E00E94A603AA2497FCA0944F
:10017000BA2CC801B501A4012AE030E00E94A60310
:10018000C8014CE250E060E070E020E030E00E9406
:10019000A603662457FC6094762CC801B301A20123
:1001A0002AE030E00E94A603C8014CE250E060E083
:1001B00070E020E030E00E94A603AE01662757FD04
:1001C0006095762FC8012AE030E00E94A603C8019E
:1001D0004CE250E060E070E020E030E00E94A603D6
:1001E000C80143E250E060E070E020E030E00E94AF
:1001F000BB03DF91CF911F910F91FF90EF90DF90A4
:10020000CF90BF90AF909F908F907F906F905F90B6
:100210004F903F902F9008950F931F93FC01DB01A7
:100220009A0182E090E0918F808F048D158DCF012F
:1002300062E070E0AD010E9461001F910F9108958E
:10024000FC018FEF9FEF918F808F158E148E90871A
:1002500087831186168286EF91E062E371E00E9447
:10026000D4026CED75E080E090E00E940E040895E9
:10027000CF92DF92EF92FF920F931F938C017B013D
:100280006A0186EF91E040E05BE460E070E00E948C
:10029000CB01F801F382E282D582C482C8010E94B8
:1002A00020011F910F91FF90EF90DF90CF90089564
:1002B00084E591E00E94600008950F931F9304E588
:1002C00011E0C8016BE070E041E050E00E940C01D9
:1002D00068EE73E080E090E00E940E04C8016BE0DD
:1002E00070E040E050E00E940C0168EE73E080E0B6
:1002F00090E00E940E041F910F91089584E591E013
:1003000062E070E041E050E00E94380108950E94F0
:1003100038040E947E010E945D01FDCF1F920F9262
:100320000FB60F9211242F933F934F935F936F93C8
:100330007F938F939F93AF93BF93EF93FF934091DE
:10034000C600E091F201F091F301CF01019660E85F
:1003500070E00E9472049C018091F4019091F5017B
:100360002817390739F0EE58FE4F40833093F301D8
:100370002093F201FF91EF91BF91AF919F918F91E7
:100380007F916F915F914F913F912F910F900FBE91
:100390000F901F901895AF92BF92CF92DF92EF927D
:1003A000FF920F931F93CF93DF936C017A018B0120
:1003B000DC011496AD90BC901597CB01BA0122E0F8
:1003C00030E040E050E00E94A704205C3D4B404FED
:1003D0005F4FCA01B901A80197010E94A704C90192
:1003E000DA010197A109B109292F3A2F4B2F55277F
:1003F00047FD5A950196A11DB11DE5012883E6012F
:10040000EE81FF8181508083EA85FB85208141E078
:1004100050E0CA010E8402C0880F991F0A94E2F7C7
:10042000282B2083EA85FB852081CA010F8402C026
:10043000880F991F0A94E2F7282B2083EA85FB8511
:100440008081088802C0440F551F0A94E2F7842B6C
:100450008083DF91CF911F910F91FF90EF90DF90FC
:10046000CF90BF90AF900895FC01A085B185218900
:100470008C9190E0022E02C0959587950A94E2F740
:1004800080FFF6CF0484F585E02D608308958EE427
:1004900091E09093F7018093F60182E791E09093C9
:1004A000F9018093F80185EC90E09093FB01809333
:1004B000FA0184EC90E09093FD018093FC0180ECC4
:1004C00090E09093FF018093FE0181EC90E0909387
:1004D00001028093000286EC90E0909303028093E7
:1004E000020284E08093040283E08093050287E0A7
:1004F0008093060285E08093070208950F931F936F
:10050000CF93DF938C01EB0109C02196D801ED91C7
:10051000FC910190F081E02DC80109956881662366
:10052000A1F7DF91CF911F910F910895EF92FF9264
:100530000F931F93CF93DF938C017B01EA010CC0D3
:10054000D7016D917D01D801ED91FC910190F08171
:10055000E02DC80109952197209791F7DF91CF9160
:100560001F910F91FF90EF900895DC01ED91FC91A8
:100570000280F381E02D099508950F931F938C015C
:10058000DC01ED91FC910190F081E02D6DE0099589
:10059000D801ED91FC910190F081E02DC8016AE055
:1005A00009951F910F9108950F931F938C010E943D
:1005B000B502C8010E94BD021F910F9108952F92AC
:1005C0003F924F925F926F927F928F929F92AF92E3
:1005D000BF92CF92DF92EF92FF920F931F93DF9320
:1005E000CF93CDB7DEB7A0970FB6F894DEBF0FBE9E
:1005F000CDBF1C016A017B014115510561057105E3
:1006000049F4DC01ED91FC910190F081E02D60E373
:10061000099554C0882499245401422E55246624F7
:10062000772401E010E00C0F1D1F080D191DC701F4
:10063000B601A30192010E948504F8016083089429
:10064000811C911CA11CB11CC701B601A301920120
:100650000E948504C901DA016C017D01C114D10435
:10066000E104F104F1F681E0E82EF12CEC0EFD1E20
:10067000E80CF91C3E010894611C711CD501C401F1
:100680000197A109B1096C01C818D90814C0F60175
:10069000EE0DFF1D60816A3010F4605D01C0695C81
:1006A000D101ED91FC910190F081E02DC1010995FE
:1006B0000894E108F1086E147F0449F7A0960FB67C
:1006C000F894DEBF0FBECDBFCF91DF911F910F9188
:1006D000FF90EF90DF90CF90BF90AF909F908F9062
:1006E0007F906F905F904F903F902F900895EF9282
:1006F000FF920F931F93CF93DF93EC017A018B014D
:1007000077FF0FC0E881F9810190F081E02D6DE263
:10071000099510950095F094E094E11CF11C011DE1
:10072000111DCE01B801A7012AE00E94DF02DF916E
:10073000CF911F910F91FF90EF900895AB01662725
:1007400057FD6095762F0E9477030895DC012115EF
:10075000310541F4ED91FC910190F081E02D642F81
:10076000099508952A30310519F40E9477030895F8
:100770000E94DF0208950F931F938C010E94A6032D
:10078000C8010E94BD021F910F9108951F920F9200
:100790000FB60F9211242F933F938F939F93AF9394
:1007A000BF9380910C0290910D02A0910E02B09126
:1007B0000F02309110020196A11DB11D232F2D5F54
:1007C0002D3720F02D570196A11DB11D2093100249
:1007D00080930C0290930D02A0930E02B0930F022F
:1007E0008091080290910902A0910A02B0910B0237
:1007F0000196A11DB11D8093080290930902A09358
:100800000A02B0930B02BF91AF919F918F913F91DC
:100810002F910F900FBE0F901F901895EF92FF929F
:100820000F931F937B018C018FB7F89440910C02BA
:1008300050910D0260910E0270910F028FBF2FB781
:10084000F89480910C0290910D02A0910E02B0914B
:100850000F022FBF841B950BA60BB70BE816F906EA
:100860000A071B0760F71F910F91FF90EF90089503
:10087000789484B5826084BD84B5816084BD85B57B
:10088000826085BD85B5816085BDEEE6F0E0808142
:1008900081608083E1E8F0E08081826080838081F4
:1008A00081608083E0E8F0E0808181608083E1EB1B
:1008B000F0E0808184608083E0EBF0E08081816003
:1008C0008083EAE7F0E080818460808380818260B9
:1008D00080838081816080838081806880831092A2
:1008E000C100089597FB092E07260AD077FD04D092
:1008F00049D006D000201AF4709561957F4F089575
:10090000F6F7909581959F4F0895A1E21A2EAA1BA4
:10091000BB1BFD010DC0AA1FBB1FEE1FFF1FA217AF
:10092000B307E407F50720F0A21BB30BE40BF50BAC
:10093000661F771F881F991F1A9469F76095709535
:10094000809590959B01AC01BD01CF01089597FB67
:10095000092E05260ED057FD04D0D7DF0AD0001C83
:1009600038F450954095309521953F4F4F4F5F4F4C
:100970000895F6F790958095709561957F4F8F4F0C
:100980009F4F0895AA1BBB1B51E107C0AA1FBB1FA5
:10099000A617B70710F0A61BB70B881F991F5A950B
:1009A000A9F780959095BC01CD010895EE0FFF1F2A
:0C09B0000590F491E02D0994F894FFCF1D
:1009BC002C20646973706C6179696E672072656351
:1009CC00656976656420646174613A2000202000BA
:1009DC006C6173745061636B61676553697A653AD6
:1009EC00200073746F6E655468726F7720496E695E
:1009FC00746974616C697A656400000000003402EB
:040A0C007E029602CE
:00000001FF
