:100000000C9463000C948B000C948B000C948B006C
:100010000C948B000C948B000C948B000C948B0034
:100020000C948B000C948B000C948B000C948B0024
:100030000C948B000C948B000C948B000C948B0014
:100040000C94A4050C948B000C9414030C948B005A
:100050000C948B000C948B000C948B000C948B00F4
:100060000C948B000C948B000000000024002700EF
:100070002A0000000000250028002B0000000000DE
:1000800023002600290004040404040404040202DA
:100090000202020203030303030301020408102007
:1000A0004080010204081020010204081020000012
:1000B0000007000201000003040600000000000029
:1000C0000000F402150411241FBECFEFD4E0DEBF00
:1000D000CDBF11E0A0E0B1E0EEEDFFE002C0059081
:1000E0000D92A635B107D9F712E0A6E5B1E001C03F
:1000F0001D92A331B107E1F710E0C6ECD0E004C0D7
:100100002297FE010E94E907C23CD107C9F70E946D
:100110000D030C94ED070C940000FC01882799272F
:10012000E89421912032E9F3293010F02E30C8F301
:100130002B3241F02D3239F4689404C00E94AB0098
:10014000820F911D219120532A30C0F31EF4909507
:1001500081959F4F08957AE0979F902D879F802DDE
:10016000910D112408950895EF92FF920F931F931C
:10017000CF93DF937C01FC0186818130C1F56485DA
:100180007585828193816817790789F58185882330
:1001900071F188EF91E00E946C0588EF91E060E0DA
:1001A00071E00E9483048701C0E0D0E014C0F80130
:1001B00040855185662757FD6095762F88EF91E041
:1001C0002AE030E00E94840588EF91E06DE171E063
:1001D0000E94830421960E5F1F4FF701878190854F
:1001E000C817D90724F388EF91E00E948B04DF91B0
:1001F000CF911F910F91FF90EF900895AF92BF9212
:10020000CF92DF92EF92FF920F931F93DF93CF93E2
:1002100000D000D00F92CDB7DEB77C0188EF91E01F
:100220000E94CE039C018A32910509F053C0F70168
:10023000118600E010E0CC24DD245E010894A11CAE
:10024000B11CC901C0970A9738F4F501E00FF11FFE
:1002500020830F5F1F4F1CC02C323105C9F4C5012C
:100260000E948D0025E030E0C20ED31EF601EE0F95
:10027000FF1FEE0DFF1D9183808319821A821B825E
:100280001C821D828CEF9FEFC80ED91E00E010E08B
:1002900088EF91E00E94CE039C018332910589F69C
:1002A000F701D086C7828681882369F088EF91E0C4
:1002B00060E271E00E948304F7016781708588EF36
:1002C00091E00E947405F70187819085069711F4EB
:1002D00081E081870F900F900F900F900F90CF913A
:1002E000DF911F910F91FF90EF90DF90CF90BF9023
:1002F000AF9008952F923F924F925F926F927F92AC
:100300008F929F92AF92BF92CF92DF92EF92FF9225
:100310000F931F93CF93DF931C016B014A012901B7
:10032000E80108EF11E0C8014AE250E060E070E047
:1003300020E030E00E948405F10162817381C801F0
:100340000E946C05C8014CE250E060E070E020E0E3
:1003500030E00E948405F10164817581C8010E942A
:100360006C05C8014CE250E060E070E020E030E055
:100370000E948405EE24D7FCE094FE2CC801B7014E
:10038000A6012AE030E00E948405C8014CE250E05A
:1003900060E070E020E030E00E948405AA2497FC31
:1003A000A094BA2CC801B501A4012AE030E00E9453
:1003B0008405C8014CE250E060E070E020E030E0ED
:1003C0000E948405662457FC6094762CC801B30112
:1003D000A2012AE030E00E948405C8014CE250E00E
:1003E00060E070E020E030E00E948405AE01662706
:1003F00057FD6095762FC8012AE030E00E94840501
:10040000C8014CE250E060E070E020E030E00E9483
:100410008405C80143E250E060E070E020E030E095
:100420000E949905DF91CF911F910F91FF90EF905E
:10043000DF90CF90BF90AF909F908F907F906F9004
:100440005F904F903F902F900895CF92DF92EF9260
:10045000FF920F931F93CF93DF93EC012C853D8583
:100460008A819B812817390709F068C0898588230C
:1004700009F456C0D888C9881A890B898E859F854A
:100480008230910519F18330910524F4019709F028
:1004900047C007C08330910511F1049709F040C0AF
:1004A00036C08D2D60E00E94C7068D2D0E94340756
:1004B0008C0188EF91E00E94F603CE0168E070E0C5
:1004C0004D2D5C2D980101E010E01EC08D2D61E0E6
:1004D0000E94C7068D2D612F0E94E70621C08D2D39
:1004E0000E9450067C0188EF91E00E94F6030F2DD8
:1004F000112707FD1A95CE0169E070E04D2D5C2DA6
:100500002FEFE222FF2497010E947A0109C08D2D6E
:1005100061E00E94C7068D2D612F702F0E946E062C
:10052000FE0180E090E013861286019632968830B4
:100530009105C9F788EF91E00E94F603DF91CF9112
:100540001F910F91FF90EF90DF90CF900895CF9380
:10055000DF93EC0188EF91E00E94BA03882349F011
:10056000CE010E94FE00CE010E94B400CE010E9486
:100570002502DF91CF910895FC018FEF9FEF918FBE
:10058000808F158E148E908787831186168288EF50
:1005900091E062E371E00E94A2046CED75E080E0FE
:1005A00090E00E94EC050895CF92DF92EF92FF92C7
:1005B0000F931F938C017B016A0188EF91E040E06B
:1005C0005BE460E070E00E945103F801F382E28294
:1005D000D582C482C8010E94BC021F910F91FF9076
:1005E000EF90DF90CF90089586E591E00E94B300F0
:1005F000089586E591E00E94A7026AE070E080E03D
:1006000090E00E94EC05089586E591E061E070E0DD
:1006100042E050E00E94D40208950E9416060E9413
:1006200004030E94F902FDCF1F920F920FB60F92A2
:1006300011242F933F934F935F936F937F938F93E7
:100640009F93AF93BF93EF93FF934091C600E091C8
:10065000F401F091F501CF01019660E870E00E948D
:1006600083079C018091F6019091F70128173907C3
:1006700039F0EC58FE4F40833093F5012093F4019C
:10068000FF91EF91BF91AF919F918F917F916F916A
:100690005F914F913F912F910F900FBE0F901F9040
:1006A0001895AF92BF92CF92DF92EF92FF920F9385
:1006B0001F93CF93DF936C017A018B01DC011496B9
:1006C000AD90BC901597CB01BA0122E030E040E03C
:1006D00050E00E94B807205C3D4B404F5F4FCA017D
:1006E000B901A80197010E94B807C901DA01019771
:1006F000A109B109292F3A2F4B2F552747FD5A95AC
:100700000196A11DB11DE5012883E601EE81FF815F
:1007100081508083EA85FB85208141E050E0CA0159
:100720000E8402C0880F991F0A94E2F7282B2083B9
:10073000EA85FB852081CA010F8402C0880F991FBA
:100740000A94E2F7282B2083EA85FB8580810888BC
:1007500002C0440F551F0A94E2F7842B8083DF9177
:10076000CF911F910F91FF90EF90DF90CF90BF90AE
:10077000AF900895DC011296ED91FC911397E0582B
:10078000FF4F8191919180589F4F20813181821B31
:10079000930B60E870E00E9483070895CF93DF9386
:1007A000DC011296ED91FC911397EF01CE57DF4FCC
:1007B00048815981E058FF4F80819181E058F04095
:1007C0008417950719F42FEF3FEF0CC0E40FF51FC6
:1007D0002081CA01019660E870E00E948307998336
:1007E000888330E0C901DF91CF910895DC01129632
:1007F000ED91FC911397EE57FF4F80819181929379
:1008000082930895FC01A085B18521898C9190E0A7
:10081000022E02C0959587950A94E2F780FFF6CFE5
:100820000484F585E02D608308958FE491E0909332
:10083000F9018093F80184E791E09093FB018093A4
:10084000FA0185EC90E09093FD018093FC0184EC2B
:1008500090E09093FF018093FE0180EC90E09093F4
:1008600001028093000281EC90E090930302809358
:10087000020286EC90E0909305028093040284E0EB
:100880008093060283E08093070287E0809308024A
:1008900085E08093090208950F931F93CF93DF9310
:1008A0008C01EB0109C02196D801ED91FC910190DA
:1008B000F081E02DC801099568816623A1F7DF91D9
:1008C000CF911F910F910895EF92FF920F931F9375
:1008D000CF93DF938C017B01EA010CC0D7016D91AE
:1008E0007D01D801ED91FC910190F081E02DC801CE
:1008F00009952197209791F7DF91CF911F910F9143
:10090000FF90EF900895DC01ED91FC910280F3815E
:10091000E02D099508950F931F938C01DC01ED9153
:10092000FC910190F081E02D6DE00995D801ED91E9
:10093000FC910190F081E02DC8016AE009951F91BA
:100940000F9108950F931F938C010E948304C80197
:100950000E948B041F910F9108952F923F924F9206
:100960005F926F927F928F929F92AF92BF92CF923F
:10097000DF92EF92FF920F931F93DF93CF93CDB748
:10098000DEB7A0970FB6F894DEBF0FBECDBF1C0137
:100990006A017B01411551056105710549F4DC01CE
:1009A000ED91FC910190F081E02D60E3099554C038
:1009B000882499245401422E55246624772401E08A
:1009C00010E00C0F1D1F080D191DC701B601A30172
:1009D00092010E949607F80160830894811C911C83
:1009E000A11CB11CC701B601A30192010E94960788
:1009F000C901DA016C017D01C114D104E104F104E3
:100A0000F1F681E0E82EF12CEC0EFD1EE80CF91C4D
:100A10003E010894611C711CD501C4010197A10914
:100A2000B1096C01C818D90814C0F601EE0DFF1DFC
:100A300060816A3010F4605D01C0695CD101ED91A4
:100A4000FC910190F081E02DC10109950894E10825
:100A5000F1086E147F0449F7A0960FB6F894DEBF34
:100A60000FBECDBFCF91DF911F910F91FF90EF90FF
:100A7000DF90CF90BF90AF909F908F907F906F90BE
:100A80005F904F903F902F900895EF92FF920F93B9
:100A90001F93CF93DF93EC017A018B0177FF0FC097
:100AA000E881F9810190F081E02D6DE209951095C2
:100AB0000095F094E094E11CF11C011D111DCE0184
:100AC000B801A7012AE00E94AD04DF91CF911F91E8
:100AD0000F91FF90EF900895AB01662757FD609549
:100AE000762F0E94450508950F931F938C01AB014B
:100AF000662757FD6095762F0E944505C8010E9424
:100B00008B041F910F910895DC012115310541F4EB
:100B1000ED91FC910190F081E02D642F09950895ED
:100B20002A30310519F40E94450508950E94AD044C
:100B300008950F931F938C010E948405C8010E94A1
:100B40008B041F910F9108951F920F920FB60F9271
:100B500011242F933F938F939F93AF93BF938091D3
:100B60000E0290910F02A0911002B09111023091EB
:100B700012020196A11DB11D232F2D5F2D3720F0EC
:100B80002D570196A11DB11D2093120280930E02D4
:100B900090930F02A0931002B093110280910A0269
:100BA00090910B02A0910C02B0910D020196A11D33
:100BB000B11D80930A0290930B02A0930C02B09394
:100BC0000D02BF91AF919F918F913F912F910F9007
:100BD0000FBE0F901F901895EF92FF920F931F93E7
:100BE0007B018C018FB7F89440910E0250910F0257
:100BF00060911002709111028FBF2FB7F89480910D
:100C00000E0290910F02A0911002B09111022FBF1D
:100C1000841B950BA60BB70BE816F9060A071B07F2
:100C200060F71F910F91FF90EF900895789484B52D
:100C3000826084BD84B5816084BD85B5826085BDD8
:100C400085B5816085BDEEE6F0E0808181608083BE
:100C5000E1E8F0E080818260808380818160808330
:100C6000E0E8F0E0808181608083E1EBF0E080816A
:100C700084608083E0EBF0E0808181608083EAE73C
:100C8000F0E08081846080838081826080838081C5
:100C9000816080838081806880831092C100089584
:100CA000877090914A019295990F990F907C982B9B
:100CB00090937C0080917A00806480937A00809188
:100CC0007A0086FDFCCF2091780040917900942F26
:100CD00080E030E0282B392BC90108951F93CF9372
:100CE000DF93182FEB0161E00E94C706E12FF0E0CF
:100CF000E255FF4F8491833051F4809180008068E9
:100D000080938000D0938900C09388003CC08430D9
:100D100051F480918000806280938000D0938B009A
:100D2000C0938A0030C0813039F4209729F184B50E
:100D3000806884BDC7BD27C0823039F42097E1F0B8
:100D400084B5806284BDC8BD1EC0863041F48091E8
:100D5000B00080688093B000C093B30014C08730A7
:100D600041F48091B00080628093B000C093B400E1
:100D70000AC0C038D1051CF4812F60E002C0812F69
:100D800061E00E94E706DF91CF911F910895282F1F
:100D900030E0C90186569F4FFC0194912A573F4F7E
:100DA000F9018491882391F0E82FF0E0EE0FFF1F06
:100DB000E859FF4FA591B491662329F48C91909541
:100DC00089238C9308958C91892B8C930895482FB7
:100DD00050E0CA0182559F4FFC012491CA018656FA
:100DE0009F4FFC0194914A575F4FFA01349133238E
:100DF000D1F1222331F1233021F4809180008F77CB
:100E000005C0243031F4809180008F7D8093800074
:100E100018C0213019F484B58F7704C0223021F432
:100E200084B58F7D84BD0DC0263021F48091B00043
:100E30008F7705C0273029F48091B0008F7D809393
:100E4000B000E32FF0E0EE0FFF1FEE58FF4FA5912B
:100E5000B491662329F48C91909589238C930895FD
:100E60008C91892B8C930895682F70E0CB0182556B
:100E70009F4FFC012491CB0186569F4FFC0144916A
:100E80006A577F4FFB019491992319F420E030E0D9
:100E900038C0222331F1233021F4809180008F77F4
:100EA00005C0243031F4809180008F7D80938000D4
:100EB00018C0213019F484B58F7704C0223021F492
:100EC00084B58F7D84BD0DC0263021F48091B000A3
:100ED0008F7705C0273029F48091B0008F7D8093F3
:100EE000B000892F90E0880F991F84589F4FFC0114
:100EF000A591B4918C9120E030E0842311F021E0A1
:100F000030E0C901089597FB092E07260AD077FD26
:100F100004D049D006D000201AF4709561957F4F17
:100F20000895F6F7909581959F4F0895A1E21A2EA6
:100F3000AA1BBB1BFD010DC0AA1FBB1FEE1FFF1F7D
:100F4000A217B307E407F50720F0A21BB30BE40BCD
:100F5000F50B661F771F881F991F1A9469F7609514
:100F60007095809590959B01AC01BD01CF010895CE
:100F700097FB092E05260ED057FD04D0D7DF0AD0E7
:100F8000001C38F450954095309521953F4F4F4FB8
:100F90005F4F0895F6F790958095709561957F4F16
:100FA0008F4F9F4F0895AA1BBB1B51E107C0AA1F7B
:100FB000BB1FA617B70710F0A61BB70B881F991FFA
:100FC0005A95A9F780959095BC01CD010895EE0F33
:0E0FD000FF1F0590F491E02D0994F894FFCFD7
:100FDE002C20646973706C6179696E672072656329
:100FEE00656976656420646174613A200020200092
:100FFE006C6173745061636B61676553697A653AAE
:10100E00200073746F6E655468726F7720496E6935
:10101E00746974616C697A656400010000000002F5
:06102E00044C0464040000
:00000001FF
